{
  "_format": "hh-sol-artifact-1",
  "contractName": "SimonDevNFT",
  "sourceName": "contracts/example.sol",
  "abi": [
    {
      "inputs": [],
      "stateMutability": "nonpayable",
      "type": "constructor"
    },
    {
      "anonymous": false,
      "inputs": [
        {
          "indexed": true,
          "internalType": "address",
          "name": "owner",
          "type": "address"
        },
        {
          "indexed": true,
          "internalType": "address",
          "name": "approved",
          "type": "address"
        },
        {
          "indexed": true,
          "internalType": "uint256",
          "name": "tokenId",
          "type": "uint256"
        }
      ],
      "name": "Approval",
      "type": "event"
    },
    {
      "anonymous": false,
      "inputs": [
        {
          "indexed": true,
          "internalType": "address",
          "name": "owner",
          "type": "address"
        },
        {
          "indexed": true,
          "internalType": "address",
          "name": "operator",
          "type": "address"
        },
        {
          "indexed": false,
          "internalType": "bool",
          "name": "approved",
          "type": "bool"
        }
      ],
      "name": "ApprovalForAll",
      "type": "event"
    },
    {
      "anonymous": false,
      "inputs": [
        {
          "indexed": true,
          "internalType": "address",
          "name": "previousOwner",
          "type": "address"
        },
        {
          "indexed": true,
          "internalType": "address",
          "name": "newOwner",
          "type": "address"
        }
      ],
      "name": "OwnershipTransferred",
      "type": "event"
    },
    {
      "anonymous": false,
      "inputs": [
        {
          "indexed": true,
          "internalType": "address",
          "name": "from",
          "type": "address"
        },
        {
          "indexed": true,
          "internalType": "address",
          "name": "to",
          "type": "address"
        },
        {
          "indexed": true,
          "internalType": "uint256",
          "name": "tokenId",
          "type": "uint256"
        }
      ],
      "name": "Transfer",
      "type": "event"
    },
    {
      "inputs": [
        {
          "internalType": "address",
          "name": "to",
          "type": "address"
        },
        {
          "internalType": "uint256",
          "name": "tokenId",
          "type": "uint256"
        }
      ],
      "name": "approve",
      "outputs": [],
      "stateMutability": "nonpayable",
      "type": "function"
    },
    {
      "inputs": [
        {
          "internalType": "address",
          "name": "owner",
          "type": "address"
        }
      ],
      "name": "balanceOf",
      "outputs": [
        {
          "internalType": "uint256",
          "name": "",
          "type": "uint256"
        }
      ],
      "stateMutability": "view",
      "type": "function"
    },
    {
      "inputs": [
        {
          "internalType": "uint256",
          "name": "tokenId",
          "type": "uint256"
        }
      ],
      "name": "getApproved",
      "outputs": [
        {
          "internalType": "address",
          "name": "",
          "type": "address"
        }
      ],
      "stateMutability": "view",
      "type": "function"
    },
    {
      "inputs": [
        {
          "internalType": "address",
          "name": "owner",
          "type": "address"
        },
        {
          "internalType": "address",
          "name": "operator",
          "type": "address"
        }
      ],
      "name": "isApprovedForAll",
      "outputs": [
        {
          "internalType": "bool",
          "name": "",
          "type": "bool"
        }
      ],
      "stateMutability": "view",
      "type": "function"
    },
    {
      "inputs": [
        {
          "components": [
            {
              "internalType": "uint256",
              "name": "tokenID",
              "type": "uint256"
            },
            {
              "internalType": "uint256",
              "name": "price",
              "type": "uint256"
            },
            {
              "internalType": "string",
              "name": "uri",
              "type": "string"
            }
          ],
          "internalType": "struct SimonDevNFT.SignedNFTData",
          "name": "nft",
          "type": "tuple"
        },
        {
          "internalType": "bytes",
          "name": "signature",
          "type": "bytes"
        }
      ],
      "name": "lazyMintNFT",
      "outputs": [
        {
          "internalType": "uint256",
          "name": "",
          "type": "uint256"
        }
      ],
      "stateMutability": "payable",
      "type": "function"
    },
    {
      "inputs": [],
      "name": "name",
      "outputs": [
        {
          "internalType": "string",
          "name": "",
          "type": "string"
        }
      ],
      "stateMutability": "view",
      "type": "function"
    },
    {
      "inputs": [],
      "name": "owner",
      "outputs": [
        {
          "internalType": "address",
          "name": "",
          "type": "address"
        }
      ],
      "stateMutability": "view",
      "type": "function"
    },
    {
      "inputs": [
        {
          "internalType": "uint256",
          "name": "tokenId",
          "type": "uint256"
        }
      ],
      "name": "ownerOf",
      "outputs": [
        {
          "internalType": "address",
          "name": "",
          "type": "address"
        }
      ],
      "stateMutability": "view",
      "type": "function"
    },
    {
      "inputs": [],
      "name": "renounceOwnership",
      "outputs": [],
      "stateMutability": "nonpayable",
      "type": "function"
    },
    {
      "inputs": [
        {
          "internalType": "address",
          "name": "from",
          "type": "address"
        },
        {
          "internalType": "address",
          "name": "to",
          "type": "address"
        },
        {
          "internalType": "uint256",
          "name": "tokenId",
          "type": "uint256"
        }
      ],
      "name": "safeTransferFrom",
      "outputs": [],
      "stateMutability": "nonpayable",
      "type": "function"
    },
    {
      "inputs": [
        {
          "internalType": "address",
          "name": "from",
          "type": "address"
        },
        {
          "internalType": "address",
          "name": "to",
          "type": "address"
        },
        {
          "internalType": "uint256",
          "name": "tokenId",
          "type": "uint256"
        },
        {
          "internalType": "bytes",
          "name": "_data",
          "type": "bytes"
        }
      ],
      "name": "safeTransferFrom",
      "outputs": [],
      "stateMutability": "nonpayable",
      "type": "function"
    },
    {
      "inputs": [
        {
          "internalType": "address",
          "name": "operator",
          "type": "address"
        },
        {
          "internalType": "bool",
          "name": "approved",
          "type": "bool"
        }
      ],
      "name": "setApprovalForAll",
      "outputs": [],
      "stateMutability": "nonpayable",
      "type": "function"
    },
    {
      "inputs": [
        {
          "internalType": "bytes4",
          "name": "interfaceId",
          "type": "bytes4"
        }
      ],
      "name": "supportsInterface",
      "outputs": [
        {
          "internalType": "bool",
          "name": "",
          "type": "bool"
        }
      ],
      "stateMutability": "view",
      "type": "function"
    },
    {
      "inputs": [],
      "name": "symbol",
      "outputs": [
        {
          "internalType": "string",
          "name": "",
          "type": "string"
        }
      ],
      "stateMutability": "view",
      "type": "function"
    },
    {
      "inputs": [
        {
          "internalType": "uint256",
          "name": "tokenId",
          "type": "uint256"
        }
      ],
      "name": "tokenURI",
      "outputs": [
        {
          "internalType": "string",
          "name": "",
          "type": "string"
        }
      ],
      "stateMutability": "view",
      "type": "function"
    },
    {
      "inputs": [
        {
          "internalType": "address",
          "name": "from",
          "type": "address"
        },
        {
          "internalType": "address",
          "name": "to",
          "type": "address"
        },
        {
          "internalType": "uint256",
          "name": "tokenId",
          "type": "uint256"
        }
      ],
      "name": "transferFrom",
      "outputs": [],
      "stateMutability": "nonpayable",
      "type": "function"
    },
    {
      "inputs": [
        {
          "internalType": "address",
          "name": "newOwner",
          "type": "address"
        }
      ],
      "name": "transferOwnership",
      "outputs": [],
      "stateMutability": "nonpayable",
      "type": "function"
    }
  ],
  "bytecode": "0x6101406040523480156200001257600080fd5b506040518060400160405280600881526020017f53696d6f6e4465760000000000000000000000000000000000000000000000008152506040518060400160405280600381526020017f312e3000000000000000000000000000000000000000000000000000000000008152506040518060400160405280600b81526020017f53696d6f6e4465764e46540000000000000000000000000000000000000000008152506040518060400160405280600881526020017f53696d6f6e44657600000000000000000000000000000000000000000000000081525081600090805190602001906200010392919062000301565b5080600190805190602001906200011c92919062000301565b5050506200013f62000133620001f760201b60201c565b620001ff60201b60201c565b60008280519060200120905060008280519060200120905060007f8b73c3c69bb8fe3d512ecc4cf759cc79239f7b179b0ffacaa9a75d522b39400f90508260e081815250508161010081815250504660a08181525050620001a8818484620002c560201b60201c565b608081815250503073ffffffffffffffffffffffffffffffffffffffff1660c08173ffffffffffffffffffffffffffffffffffffffff16815250508061012081815250505050505050620004ed565b600033905090565b6000600760009054906101000a900473ffffffffffffffffffffffffffffffffffffffff16905081600760006101000a81548173ffffffffffffffffffffffffffffffffffffffff021916908373ffffffffffffffffffffffffffffffffffffffff1602179055508173ffffffffffffffffffffffffffffffffffffffff168173ffffffffffffffffffffffffffffffffffffffff167f8be0079c531659141344cd1fd0a4f28419497f9722a3daafe3b4186f6b6457e060405160405180910390a35050565b60008383834630604051602001620002e29594939291906200042c565b6040516020818303038152906040528051906020012090509392505050565b8280546200030f90620004b8565b90600052602060002090601f0160209004810192826200033357600085556200037f565b82601f106200034e57805160ff19168380011785556200037f565b828001600101855582156200037f579182015b828111156200037e57825182559160200191906001019062000361565b5b5090506200038e919062000392565b5090565b5b80821115620003ad57600081600090555060010162000393565b5090565b6000819050919050565b620003c681620003b1565b82525050565b6000819050919050565b620003e181620003cc565b82525050565b600073ffffffffffffffffffffffffffffffffffffffff82169050919050565b60006200041482620003e7565b9050919050565b620004268162000407565b82525050565b600060a082019050620004436000830188620003bb565b620004526020830187620003bb565b620004616040830186620003bb565b620004706060830185620003d6565b6200047f60808301846200041b565b9695505050505050565b7f4e487b7100000000000000000000000000000000000000000000000000000000600052602260045260246000fd5b60006002820490506001821680620004d157607f821691505b602082108103620004e757620004e662000489565b5b50919050565b60805160a05160c05160e05161010051610120516140026200053d6000396000611df601526000611e3801526000611e1701526000611d4c01526000611da201526000611dcb01526140026000f3fe6080604052600436106100fe5760003560e01c806370a0823111610095578063a22cb46511610064578063a22cb4651461033a578063b88d4fde14610363578063c87b56dd1461038c578063e985e9c5146103c9578063f2fde38b14610406576100fe565b806370a0823114610290578063715018a6146102cd5780638da5cb5b146102e457806395d89b411461030f576100fe565b806323b872dd116100d157806323b872dd146101d1578063304cdf90146101fa57806342842e0e1461022a5780636352211e14610253576100fe565b806301ffc9a71461010357806306fdde0314610140578063081812fc1461016b578063095ea7b3146101a8575b600080fd5b34801561010f57600080fd5b5061012a60048036038101906101259190612592565b61042f565b60405161013791906125da565b60405180910390f35b34801561014c57600080fd5b50610155610511565b604051610162919061268e565b60405180910390f35b34801561017757600080fd5b50610192600480360381019061018d91906126e6565b6105a3565b60405161019f9190612754565b60405180910390f35b3480156101b457600080fd5b506101cf60048036038101906101ca919061279b565b610628565b005b3480156101dd57600080fd5b506101f860048036038101906101f391906127db565b61073f565b005b610214600480360381019061020f91906128b7565b61079f565b6040516102219190612942565b60405180910390f35b34801561023657600080fd5b50610251600480360381019061024c91906127db565b610910565b005b34801561025f57600080fd5b5061027a600480360381019061027591906126e6565b610930565b6040516102879190612754565b60405180910390f35b34801561029c57600080fd5b506102b760048036038101906102b2919061295d565b6109e1565b6040516102c49190612942565b60405180910390f35b3480156102d957600080fd5b506102e2610a98565b005b3480156102f057600080fd5b506102f9610b20565b6040516103069190612754565b60405180910390f35b34801561031b57600080fd5b50610324610b4a565b604051610331919061268e565b60405180910390f35b34801561034657600080fd5b50610361600480360381019061035c91906129b6565b610bdc565b005b34801561036f57600080fd5b5061038a60048036038101906103859190612b26565b610bf2565b005b34801561039857600080fd5b506103b360048036038101906103ae91906126e6565b610c54565b6040516103c0919061268e565b60405180910390f35b3480156103d557600080fd5b506103f060048036038101906103eb9190612ba9565b610da5565b6040516103fd91906125da565b60405180910390f35b34801561041257600080fd5b5061042d6004803603810190610428919061295d565b610e39565b005b60007f80ac58cd000000000000000000000000000000000000000000000000000000007bffffffffffffffffffffffffffffffffffffffffffffffffffffffff1916827bffffffffffffffffffffffffffffffffffffffffffffffffffffffff191614806104fa57507f5b5e139f000000000000000000000000000000000000000000000000000000007bffffffffffffffffffffffffffffffffffffffffffffffffffffffff1916827bffffffffffffffffffffffffffffffffffffffffffffffffffffffff1916145b8061050a575061050982610f30565b5b9050919050565b60606000805461052090612c18565b80601f016020809104026020016040519081016040528092919081815260200182805461054c90612c18565b80156105995780601f1061056e57610100808354040283529160200191610599565b820191906000526020600020905b81548152906001019060200180831161057c57829003601f168201915b5050505050905090565b60006105ae82610f9a565b6105ed576040517f08c379a00000000000000000000000000000000000000000000000000000000081526004016105e490612cbb565b60405180910390fd5b6004600083815260200190815260200160002060009054906101000a900473ffffffffffffffffffffffffffffffffffffffff169050919050565b600061063382610930565b90508073ffffffffffffffffffffffffffffffffffffffff168373ffffffffffffffffffffffffffffffffffffffff16036106a3576040517f08c379a000000000000000000000000000000000000000000000000000000000815260040161069a90612d4d565b60405180910390fd5b8073ffffffffffffffffffffffffffffffffffffffff166106c2611006565b73ffffffffffffffffffffffffffffffffffffffff1614806106f157506106f0816106eb611006565b610da5565b5b610730576040517f08c379a000000000000000000000000000000000000000000000000000000000815260040161072790612ddf565b60405180910390fd5b61073a838361100e565b505050565b61075061074a611006565b826110c7565b61078f576040517f08c379a000000000000000000000000000000000000000000000000000000000815260040161078690612e71565b60405180910390fd5b61079a8383836111a5565b505050565b6000836020013534146107e7576040517f08c379a00000000000000000000000000000000000000000000000000000000081526004016107de90612f03565b60405180910390fd5b61083d6107f38561140b565b84848080601f016020809104026020016040519081016040528093929190818152602001838380828437600081840152601f19601f8201169050808301925050505050505061149b565b61087c576040517f08c379a000000000000000000000000000000000000000000000000000000000815260040161087390612f6f565b60405180910390fd5b610891610887611006565b85600001356114e9565b6108f184600001358580604001906108a99190612f9e565b8080601f016020809104026020016040519081016040528093929190818152602001838380828437600081840152601f19601f82011690508083019250505050505050611507565b6109026108fc610b20565b3461157b565b836000013590509392505050565b61092b83838360405180602001604052806000815250610bf2565b505050565b6000806002600084815260200190815260200160002060009054906101000a900473ffffffffffffffffffffffffffffffffffffffff169050600073ffffffffffffffffffffffffffffffffffffffff168173ffffffffffffffffffffffffffffffffffffffff16036109d8576040517f08c379a00000000000000000000000000000000000000000000000000000000081526004016109cf90613073565b60405180910390fd5b80915050919050565b60008073ffffffffffffffffffffffffffffffffffffffff168273ffffffffffffffffffffffffffffffffffffffff1603610a51576040517f08c379a0000000000000000000000000000000000000000000000000000000008152600401610a4890613105565b60405180910390fd5b600360008373ffffffffffffffffffffffffffffffffffffffff1673ffffffffffffffffffffffffffffffffffffffff168152602001908152602001600020549050919050565b610aa0611006565b73ffffffffffffffffffffffffffffffffffffffff16610abe610b20565b73ffffffffffffffffffffffffffffffffffffffff1614610b14576040517f08c379a0000000000000000000000000000000000000000000000000000000008152600401610b0b90613171565b60405180910390fd5b610b1e600061166f565b565b6000600760009054906101000a900473ffffffffffffffffffffffffffffffffffffffff16905090565b606060018054610b5990612c18565b80601f0160208091040260200160405190810160405280929190818152602001828054610b8590612c18565b8015610bd25780601f10610ba757610100808354040283529160200191610bd2565b820191906000526020600020905b815481529060010190602001808311610bb557829003601f168201915b5050505050905090565b610bee610be7611006565b8383611735565b5050565b610c03610bfd611006565b836110c7565b610c42576040517f08c379a0000000000000000000000000000000000000000000000000000000008152600401610c3990612e71565b60405180910390fd5b610c4e848484846118a1565b50505050565b6060610c5f82610f9a565b610c9e576040517f08c379a0000000000000000000000000000000000000000000000000000000008152600401610c9590613203565b60405180910390fd5b6000600660008481526020019081526020016000208054610cbe90612c18565b80601f0160208091040260200160405190810160405280929190818152602001828054610cea90612c18565b8015610d375780601f10610d0c57610100808354040283529160200191610d37565b820191906000526020600020905b815481529060010190602001808311610d1a57829003601f168201915b505050505090506000610d486118fd565b90506000815103610d5d578192505050610da0565b600082511115610d92578082604051602001610d7a92919061325f565b60405160208183030381529060405292505050610da0565b610d9b84611914565b925050505b919050565b6000600560008473ffffffffffffffffffffffffffffffffffffffff1673ffffffffffffffffffffffffffffffffffffffff16815260200190815260200160002060008373ffffffffffffffffffffffffffffffffffffffff1673ffffffffffffffffffffffffffffffffffffffff16815260200190815260200160002060009054906101000a900460ff16905092915050565b610e41611006565b73ffffffffffffffffffffffffffffffffffffffff16610e5f610b20565b73ffffffffffffffffffffffffffffffffffffffff1614610eb5576040517f08c379a0000000000000000000000000000000000000000000000000000000008152600401610eac90613171565b60405180910390fd5b600073ffffffffffffffffffffffffffffffffffffffff168173ffffffffffffffffffffffffffffffffffffffff1603610f24576040517f08c379a0000000000000000000000000000000000000000000000000000000008152600401610f1b906132f5565b60405180910390fd5b610f2d8161166f565b50565b60007f01ffc9a7000000000000000000000000000000000000000000000000000000007bffffffffffffffffffffffffffffffffffffffffffffffffffffffff1916827bffffffffffffffffffffffffffffffffffffffffffffffffffffffff1916149050919050565b60008073ffffffffffffffffffffffffffffffffffffffff166002600084815260200190815260200160002060009054906101000a900473ffffffffffffffffffffffffffffffffffffffff1673ffffffffffffffffffffffffffffffffffffffff1614159050919050565b600033905090565b816004600083815260200190815260200160002060006101000a81548173ffffffffffffffffffffffffffffffffffffffff021916908373ffffffffffffffffffffffffffffffffffffffff160217905550808273ffffffffffffffffffffffffffffffffffffffff1661108183610930565b73ffffffffffffffffffffffffffffffffffffffff167f8c5be1e5ebec7d5bd14f71427d1e84f3dd0314c0f7b2291e5b200ac8c7c3b92560405160405180910390a45050565b60006110d282610f9a565b611111576040517f08c379a000000000000000000000000000000000000000000000000000000000815260040161110890613387565b60405180910390fd5b600061111c83610930565b90508073ffffffffffffffffffffffffffffffffffffffff168473ffffffffffffffffffffffffffffffffffffffff16148061115e575061115d8185610da5565b5b8061119c57508373ffffffffffffffffffffffffffffffffffffffff16611184846105a3565b73ffffffffffffffffffffffffffffffffffffffff16145b91505092915050565b8273ffffffffffffffffffffffffffffffffffffffff166111c582610930565b73ffffffffffffffffffffffffffffffffffffffff161461121b576040517f08c379a000000000000000000000000000000000000000000000000000000000815260040161121290613419565b60405180910390fd5b600073ffffffffffffffffffffffffffffffffffffffff168273ffffffffffffffffffffffffffffffffffffffff160361128a576040517f08c379a0000000000000000000000000000000000000000000000000000000008152600401611281906134ab565b60405180910390fd5b6112958383836119bb565b6112a060008261100e565b6001600360008573ffffffffffffffffffffffffffffffffffffffff1673ffffffffffffffffffffffffffffffffffffffff16815260200190815260200160002060008282546112f091906134fa565b925050819055506001600360008473ffffffffffffffffffffffffffffffffffffffff1673ffffffffffffffffffffffffffffffffffffffff1681526020019081526020016000206000828254611347919061352e565b92505081905550816002600083815260200190815260200160002060006101000a81548173ffffffffffffffffffffffffffffffffffffffff021916908373ffffffffffffffffffffffffffffffffffffffff160217905550808273ffffffffffffffffffffffffffffffffffffffff168473ffffffffffffffffffffffffffffffffffffffff167fddf252ad1be2c89b69c2b068fc378daa952ba7f163c4a11628f55a4df523b3ef60405160405180910390a46114068383836119c0565b505050565b6000806114907f6217db7ed205fcb546b31f7cbc64e62b2d376dc84b0195749af2b916dec915fd8460000135856020013586806040019061144c9190612f9e565b60405161145a9291906135b4565b604051809103902060405160200161147594939291906135e6565b604051602081830303815290604052805190602001206119c5565b905080915050919050565b6000806114a884846119df565b90508073ffffffffffffffffffffffffffffffffffffffff166114c9610b20565b73ffffffffffffffffffffffffffffffffffffffff161491505092915050565b611503828260405180602001604052806000815250611a06565b5050565b61151082610f9a565b61154f576040517f08c379a00000000000000000000000000000000000000000000000000000000081526004016115469061369d565b60405180910390fd5b80600660008481526020019081526020016000209080519060200190611576929190612483565b505050565b804710156115be576040517f08c379a00000000000000000000000000000000000000000000000000000000081526004016115b590613709565b60405180910390fd5b60008273ffffffffffffffffffffffffffffffffffffffff16826040516115e49061374f565b60006040518083038185875af1925050503d8060008114611621576040519150601f19603f3d011682016040523d82523d6000602084013e611626565b606091505b505090508061166a576040517f08c379a0000000000000000000000000000000000000000000000000000000008152600401611661906137d6565b60405180910390fd5b505050565b6000600760009054906101000a900473ffffffffffffffffffffffffffffffffffffffff16905081600760006101000a81548173ffffffffffffffffffffffffffffffffffffffff021916908373ffffffffffffffffffffffffffffffffffffffff1602179055508173ffffffffffffffffffffffffffffffffffffffff168173ffffffffffffffffffffffffffffffffffffffff167f8be0079c531659141344cd1fd0a4f28419497f9722a3daafe3b4186f6b6457e060405160405180910390a35050565b8173ffffffffffffffffffffffffffffffffffffffff168373ffffffffffffffffffffffffffffffffffffffff16036117a3576040517f08c379a000000000000000000000000000000000000000000000000000000000815260040161179a90613842565b60405180910390fd5b80600560008573ffffffffffffffffffffffffffffffffffffffff1673ffffffffffffffffffffffffffffffffffffffff16815260200190815260200160002060008473ffffffffffffffffffffffffffffffffffffffff1673ffffffffffffffffffffffffffffffffffffffff16815260200190815260200160002060006101000a81548160ff0219169083151502179055508173ffffffffffffffffffffffffffffffffffffffff168373ffffffffffffffffffffffffffffffffffffffff167f17307eab39ab6107e8899845ad3d59bd9653f200f220920489ca2b5937696c318360405161189491906125da565b60405180910390a3505050565b6118ac8484846111a5565b6118b884848484611a61565b6118f7576040517f08c379a00000000000000000000000000000000000000000000000000000000081526004016118ee906138d4565b60405180910390fd5b50505050565b606060405180602001604052806000815250905090565b606061191f82610f9a565b61195e576040517f08c379a000000000000000000000000000000000000000000000000000000000815260040161195590613966565b60405180910390fd5b60006119686118fd565b9050600081511161198857604051806020016040528060008152506119b3565b8061199284611be8565b6040516020016119a392919061325f565b6040516020818303038152906040525b915050919050565b505050565b505050565b60006119d86119d2611d48565b83611e62565b9050919050565b60008060006119ee8585611e95565b915091506119fb81611f16565b819250505092915050565b611a1083836120e2565b611a1d6000848484611a61565b611a5c576040517f08c379a0000000000000000000000000000000000000000000000000000000008152600401611a53906138d4565b60405180910390fd5b505050565b6000611a828473ffffffffffffffffffffffffffffffffffffffff166122bb565b15611bdb578373ffffffffffffffffffffffffffffffffffffffff1663150b7a02611aab611006565b8786866040518563ffffffff1660e01b8152600401611acd94939291906139db565b6020604051808303816000875af1925050508015611b0957506040513d601f19601f82011682018060405250810190611b069190613a3c565b60015b611b8b573d8060008114611b39576040519150601f19603f3d011682016040523d82523d6000602084013e611b3e565b606091505b506000815103611b83576040517f08c379a0000000000000000000000000000000000000000000000000000000008152600401611b7a906138d4565b60405180910390fd5b805181602001fd5b63150b7a0260e01b7bffffffffffffffffffffffffffffffffffffffffffffffffffffffff1916817bffffffffffffffffffffffffffffffffffffffffffffffffffffffff191614915050611be0565b600190505b949350505050565b606060008203611c2f576040518060400160405280600181526020017f30000000000000000000000000000000000000000000000000000000000000008152509050611d43565b600082905060005b60008214611c61578080611c4a90613a69565b915050600a82611c5a9190613ae0565b9150611c37565b60008167ffffffffffffffff811115611c7d57611c7c6129fb565b5b6040519080825280601f01601f191660200182016040528015611caf5781602001600182028036833780820191505090505b5090505b60008514611d3c57600182611cc891906134fa565b9150600a85611cd79190613b11565b6030611ce3919061352e565b60f81b818381518110611cf957611cf8613b42565b5b60200101907effffffffffffffffffffffffffffffffffffffffffffffffffffffffffffff1916908160001a905350600a85611d359190613ae0565b9450611cb3565b8093505050505b919050565b60007f000000000000000000000000000000000000000000000000000000000000000073ffffffffffffffffffffffffffffffffffffffff163073ffffffffffffffffffffffffffffffffffffffff16148015611dc457507f000000000000000000000000000000000000000000000000000000000000000046145b15611df1577f00000000000000000000000000000000000000000000000000000000000000009050611e5f565b611e5c7f00000000000000000000000000000000000000000000000000000000000000007f00000000000000000000000000000000000000000000000000000000000000007f00000000000000000000000000000000000000000000000000000000000000006122de565b90505b90565b60008282604051602001611e77929190613bde565b60405160208183030381529060405280519060200120905092915050565b6000806041835103611ed65760008060006020860151925060408601519150606086015160001a9050611eca87828585612318565b94509450505050611f0f565b6040835103611f06576000806020850151915060408501519050611efb868383612424565b935093505050611f0f565b60006002915091505b9250929050565b60006004811115611f2a57611f29613c15565b5b816004811115611f3d57611f3c613c15565b5b03156120df5760016004811115611f5757611f56613c15565b5b816004811115611f6a57611f69613c15565b5b03611faa576040517f08c379a0000000000000000000000000000000000000000000000000000000008152600401611fa190613c90565b60405180910390fd5b60026004811115611fbe57611fbd613c15565b5b816004811115611fd157611fd0613c15565b5b03612011576040517f08c379a000000000000000000000000000000000000000000000000000000000815260040161200890613cfc565b60405180910390fd5b6003600481111561202557612024613c15565b5b81600481111561203857612037613c15565b5b03612078576040517f08c379a000000000000000000000000000000000000000000000000000000000815260040161206f90613d8e565b60405180910390fd5b60048081111561208b5761208a613c15565b5b81600481111561209e5761209d613c15565b5b036120de576040517f08c379a00000000000000000000000000000000000000000000000000000000081526004016120d590613e20565b60405180910390fd5b5b50565b600073ffffffffffffffffffffffffffffffffffffffff168273ffffffffffffffffffffffffffffffffffffffff1603612151576040517f08c379a000000000000000000000000000000000000000000000000000000000815260040161214890613e8c565b60405180910390fd5b61215a81610f9a565b1561219a576040517f08c379a000000000000000000000000000000000000000000000000000000000815260040161219190613ef8565b60405180910390fd5b6121a6600083836119bb565b6001600360008473ffffffffffffffffffffffffffffffffffffffff1673ffffffffffffffffffffffffffffffffffffffff16815260200190815260200160002060008282546121f6919061352e565b92505081905550816002600083815260200190815260200160002060006101000a81548173ffffffffffffffffffffffffffffffffffffffff021916908373ffffffffffffffffffffffffffffffffffffffff160217905550808273ffffffffffffffffffffffffffffffffffffffff16600073ffffffffffffffffffffffffffffffffffffffff167fddf252ad1be2c89b69c2b068fc378daa952ba7f163c4a11628f55a4df523b3ef60405160405180910390a46122b7600083836119c0565b5050565b6000808273ffffffffffffffffffffffffffffffffffffffff163b119050919050565b600083838346306040516020016122f9959493929190613f18565b6040516020818303038152906040528051906020012090509392505050565b6000807f7fffffffffffffffffffffffffffffff5d576e7357a4501ddfe92f46681b20a08360001c111561235357600060039150915061241b565b601b8560ff161415801561236b5750601c8560ff1614155b1561237d57600060049150915061241b565b6000600187878787604051600081526020016040526040516123a29493929190613f87565b6020604051602081039080840390855afa1580156123c4573d6000803e3d6000fd5b505050602060405103519050600073ffffffffffffffffffffffffffffffffffffffff168173ffffffffffffffffffffffffffffffffffffffff16036124125760006001925092505061241b565b80600092509250505b94509492505050565b60008060007f7fffffffffffffffffffffffffffffffffffffffffffffffffffffffffffffff60001b841690506000601b60ff8660001c901c612467919061352e565b905061247587828885612318565b935093505050935093915050565b82805461248f90612c18565b90600052602060002090601f0160209004810192826124b157600085556124f8565b82601f106124ca57805160ff19168380011785556124f8565b828001600101855582156124f8579182015b828111156124f75782518255916020019190600101906124dc565b5b5090506125059190612509565b5090565b5b8082111561252257600081600090555060010161250a565b5090565b6000604051905090565b600080fd5b600080fd5b60007fffffffff0000000000000000000000000000000000000000000000000000000082169050919050565b61256f8161253a565b811461257a57600080fd5b50565b60008135905061258c81612566565b92915050565b6000602082840312156125a8576125a7612530565b5b60006125b68482850161257d565b91505092915050565b60008115159050919050565b6125d4816125bf565b82525050565b60006020820190506125ef60008301846125cb565b92915050565b600081519050919050565b600082825260208201905092915050565b60005b8381101561262f578082015181840152602081019050612614565b8381111561263e576000848401525b50505050565b6000601f19601f8301169050919050565b6000612660826125f5565b61266a8185612600565b935061267a818560208601612611565b61268381612644565b840191505092915050565b600060208201905081810360008301526126a88184612655565b905092915050565b6000819050919050565b6126c3816126b0565b81146126ce57600080fd5b50565b6000813590506126e0816126ba565b92915050565b6000602082840312156126fc576126fb612530565b5b600061270a848285016126d1565b91505092915050565b600073ffffffffffffffffffffffffffffffffffffffff82169050919050565b600061273e82612713565b9050919050565b61274e81612733565b82525050565b60006020820190506127696000830184612745565b92915050565b61277881612733565b811461278357600080fd5b50565b6000813590506127958161276f565b92915050565b600080604083850312156127b2576127b1612530565b5b60006127c085828601612786565b92505060206127d1858286016126d1565b9150509250929050565b6000806000606084860312156127f4576127f3612530565b5b600061280286828701612786565b935050602061281386828701612786565b9250506040612824868287016126d1565b9150509250925092565b600080fd5b6000606082840312156128495761284861282e565b5b81905092915050565b600080fd5b600080fd5b600080fd5b60008083601f84011261287757612876612852565b5b8235905067ffffffffffffffff81111561289457612893612857565b5b6020830191508360018202830111156128b0576128af61285c565b5b9250929050565b6000806000604084860312156128d0576128cf612530565b5b600084013567ffffffffffffffff8111156128ee576128ed612535565b5b6128fa86828701612833565b935050602084013567ffffffffffffffff81111561291b5761291a612535565b5b61292786828701612861565b92509250509250925092565b61293c816126b0565b82525050565b60006020820190506129576000830184612933565b92915050565b60006020828403121561297357612972612530565b5b600061298184828501612786565b91505092915050565b612993816125bf565b811461299e57600080fd5b50565b6000813590506129b08161298a565b92915050565b600080604083850312156129cd576129cc612530565b5b60006129db85828601612786565b92505060206129ec858286016129a1565b9150509250929050565b600080fd5b7f4e487b7100000000000000000000000000000000000000000000000000000000600052604160045260246000fd5b612a3382612644565b810181811067ffffffffffffffff82111715612a5257612a516129fb565b5b80604052505050565b6000612a65612526565b9050612a718282612a2a565b919050565b600067ffffffffffffffff821115612a9157612a906129fb565b5b612a9a82612644565b9050602081019050919050565b82818337600083830152505050565b6000612ac9612ac484612a76565b612a5b565b905082815260208101848484011115612ae557612ae46129f6565b5b612af0848285612aa7565b509392505050565b600082601f830112612b0d57612b0c612852565b5b8135612b1d848260208601612ab6565b91505092915050565b60008060008060808587031215612b4057612b3f612530565b5b6000612b4e87828801612786565b9450506020612b5f87828801612786565b9350506040612b70878288016126d1565b925050606085013567ffffffffffffffff811115612b9157612b90612535565b5b612b9d87828801612af8565b91505092959194509250565b60008060408385031215612bc057612bbf612530565b5b6000612bce85828601612786565b9250506020612bdf85828601612786565b9150509250929050565b7f4e487b7100000000000000000000000000000000000000000000000000000000600052602260045260246000fd5b60006002820490506001821680612c3057607f821691505b602082108103612c4357612c42612be9565b5b50919050565b7f4552433732313a20617070726f76656420717565727920666f72206e6f6e657860008201527f697374656e7420746f6b656e0000000000000000000000000000000000000000602082015250565b6000612ca5602c83612600565b9150612cb082612c49565b604082019050919050565b60006020820190508181036000830152612cd481612c98565b9050919050565b7f4552433732313a20617070726f76616c20746f2063757272656e74206f776e6560008201527f7200000000000000000000000000000000000000000000000000000000000000602082015250565b6000612d37602183612600565b9150612d4282612cdb565b604082019050919050565b60006020820190508181036000830152612d6681612d2a565b9050919050565b7f4552433732313a20617070726f76652063616c6c6572206973206e6f74206f7760008201527f6e6572206e6f7220617070726f76656420666f7220616c6c0000000000000000602082015250565b6000612dc9603883612600565b9150612dd482612d6d565b604082019050919050565b60006020820190508181036000830152612df881612dbc565b9050919050565b7f4552433732313a207472616e736665722063616c6c6572206973206e6f74206f60008201527f776e6572206e6f7220617070726f766564000000000000000000000000000000602082015250565b6000612e5b603183612600565b9150612e6682612dff565b604082019050919050565b60006020820190508181036000830152612e8a81612e4e565b9050919050565b7f53696d6f6e4465764e46543a204d6573736167652076616c756520213d20707260008201527f6963650000000000000000000000000000000000000000000000000000000000602082015250565b6000612eed602383612600565b9150612ef882612e91565b604082019050919050565b60006020820190508181036000830152612f1c81612ee0565b9050919050565b7f53696d6f6e4465764e46543a20496e76616c6964207369676e61747572650000600082015250565b6000612f59601e83612600565b9150612f6482612f23565b602082019050919050565b60006020820190508181036000830152612f8881612f4c565b9050919050565b600080fd5b600080fd5b600080fd5b60008083356001602003843603038112612fbb57612fba612f8f565b5b80840192508235915067ffffffffffffffff821115612fdd57612fdc612f94565b5b602083019250600182023603831315612ff957612ff8612f99565b5b509250929050565b7f4552433732313a206f776e657220717565727920666f72206e6f6e657869737460008201527f656e7420746f6b656e0000000000000000000000000000000000000000000000602082015250565b600061305d602983612600565b915061306882613001565b604082019050919050565b6000602082019050818103600083015261308c81613050565b9050919050565b7f4552433732313a2062616c616e636520717565727920666f7220746865207a6560008201527f726f206164647265737300000000000000000000000000000000000000000000602082015250565b60006130ef602a83612600565b91506130fa82613093565b604082019050919050565b6000602082019050818103600083015261311e816130e2565b9050919050565b7f4f776e61626c653a2063616c6c6572206973206e6f7420746865206f776e6572600082015250565b600061315b602083612600565b915061316682613125565b602082019050919050565b6000602082019050818103600083015261318a8161314e565b9050919050565b7f45524337323155524953746f726167653a2055524920717565727920666f722060008201527f6e6f6e6578697374656e7420746f6b656e000000000000000000000000000000602082015250565b60006131ed603183612600565b91506131f882613191565b604082019050919050565b6000602082019050818103600083015261321c816131e0565b9050919050565b600081905092915050565b6000613239826125f5565b6132438185613223565b9350613253818560208601612611565b80840191505092915050565b600061326b828561322e565b9150613277828461322e565b91508190509392505050565b7f4f776e61626c653a206e6577206f776e657220697320746865207a65726f206160008201527f6464726573730000000000000000000000000000000000000000000000000000602082015250565b60006132df602683612600565b91506132ea82613283565b604082019050919050565b6000602082019050818103600083015261330e816132d2565b9050919050565b7f4552433732313a206f70657261746f7220717565727920666f72206e6f6e657860008201527f697374656e7420746f6b656e0000000000000000000000000000000000000000602082015250565b6000613371602c83612600565b915061337c82613315565b604082019050919050565b600060208201905081810360008301526133a081613364565b9050919050565b7f4552433732313a207472616e736665722066726f6d20696e636f72726563742060008201527f6f776e6572000000000000000000000000000000000000000000000000000000602082015250565b6000613403602583612600565b915061340e826133a7565b604082019050919050565b60006020820190508181036000830152613432816133f6565b9050919050565b7f4552433732313a207472616e7366657220746f20746865207a65726f2061646460008201527f7265737300000000000000000000000000000000000000000000000000000000602082015250565b6000613495602483612600565b91506134a082613439565b604082019050919050565b600060208201905081810360008301526134c481613488565b9050919050565b7f4e487b7100000000000000000000000000000000000000000000000000000000600052601160045260246000fd5b6000613505826126b0565b9150613510836126b0565b925082821015613523576135226134cb565b5b828203905092915050565b6000613539826126b0565b9150613544836126b0565b9250827fffffffffffffffffffffffffffffffffffffffffffffffffffffffffffffffff03821115613579576135786134cb565b5b828201905092915050565b600081905092915050565b600061359b8385613584565b93506135a8838584612aa7565b82840190509392505050565b60006135c182848661358f565b91508190509392505050565b6000819050919050565b6135e0816135cd565b82525050565b60006080820190506135fb60008301876135d7565b6136086020830186612933565b6136156040830185612933565b61362260608301846135d7565b95945050505050565b7f45524337323155524953746f726167653a2055524920736574206f66206e6f6e60008201527f6578697374656e7420746f6b656e000000000000000000000000000000000000602082015250565b6000613687602e83612600565b91506136928261362b565b604082019050919050565b600060208201905081810360008301526136b68161367a565b9050919050565b7f416464726573733a20696e73756666696369656e742062616c616e6365000000600082015250565b60006136f3601d83612600565b91506136fe826136bd565b602082019050919050565b60006020820190508181036000830152613722816136e6565b9050919050565b50565b6000613739600083613584565b915061374482613729565b600082019050919050565b600061375a8261372c565b9150819050919050565b7f416464726573733a20756e61626c6520746f2073656e642076616c75652c207260008201527f6563697069656e74206d61792068617665207265766572746564000000000000602082015250565b60006137c0603a83612600565b91506137cb82613764565b604082019050919050565b600060208201905081810360008301526137ef816137b3565b9050919050565b7f4552433732313a20617070726f766520746f2063616c6c657200000000000000600082015250565b600061382c601983612600565b9150613837826137f6565b602082019050919050565b6000602082019050818103600083015261385b8161381f565b9050919050565b7f4552433732313a207472616e7366657220746f206e6f6e20455243373231526560008201527f63656976657220696d706c656d656e7465720000000000000000000000000000602082015250565b60006138be603283612600565b91506138c982613862565b604082019050919050565b600060208201905081810360008301526138ed816138b1565b9050919050565b7f4552433732314d657461646174613a2055524920717565727920666f72206e6f60008201527f6e6578697374656e7420746f6b656e0000000000000000000000000000000000602082015250565b6000613950602f83612600565b915061395b826138f4565b604082019050919050565b6000602082019050818103600083015261397f81613943565b9050919050565b600081519050919050565b600082825260208201905092915050565b60006139ad82613986565b6139b78185613991565b93506139c7818560208601612611565b6139d081612644565b840191505092915050565b60006080820190506139f06000830187612745565b6139fd6020830186612745565b613a0a6040830185612933565b8181036060830152613a1c81846139a2565b905095945050505050565b600081519050613a3681612566565b92915050565b600060208284031215613a5257613a51612530565b5b6000613a6084828501613a27565b91505092915050565b6000613a74826126b0565b91507fffffffffffffffffffffffffffffffffffffffffffffffffffffffffffffffff8203613aa657613aa56134cb565b5b600182019050919050565b7f4e487b7100000000000000000000000000000000000000000000000000000000600052601260045260246000fd5b6000613aeb826126b0565b9150613af6836126b0565b925082613b0657613b05613ab1565b5b828204905092915050565b6000613b1c826126b0565b9150613b27836126b0565b925082613b3757613b36613ab1565b5b828206905092915050565b7f4e487b7100000000000000000000000000000000000000000000000000000000600052603260045260246000fd5b7f1901000000000000000000000000000000000000000000000000000000000000600082015250565b6000613ba7600283613223565b9150613bb282613b71565b600282019050919050565b6000819050919050565b613bd8613bd3826135cd565b613bbd565b82525050565b6000613be982613b9a565b9150613bf58285613bc7565b602082019150613c058284613bc7565b6020820191508190509392505050565b7f4e487b7100000000000000000000000000000000000000000000000000000000600052602160045260246000fd5b7f45434453413a20696e76616c6964207369676e61747572650000000000000000600082015250565b6000613c7a601883612600565b9150613c8582613c44565b602082019050919050565b60006020820190508181036000830152613ca981613c6d565b9050919050565b7f45434453413a20696e76616c6964207369676e6174757265206c656e67746800600082015250565b6000613ce6601f83612600565b9150613cf182613cb0565b602082019050919050565b60006020820190508181036000830152613d1581613cd9565b9050919050565b7f45434453413a20696e76616c6964207369676e6174757265202773272076616c60008201527f7565000000000000000000000000000000000000000000000000000000000000602082015250565b6000613d78602283612600565b9150613d8382613d1c565b604082019050919050565b60006020820190508181036000830152613da781613d6b565b9050919050565b7f45434453413a20696e76616c6964207369676e6174757265202776272076616c60008201527f7565000000000000000000000000000000000000000000000000000000000000602082015250565b6000613e0a602283612600565b9150613e1582613dae565b604082019050919050565b60006020820190508181036000830152613e3981613dfd565b9050919050565b7f4552433732313a206d696e7420746f20746865207a65726f2061646472657373600082015250565b6000613e76602083612600565b9150613e8182613e40565b602082019050919050565b60006020820190508181036000830152613ea581613e69565b9050919050565b7f4552433732313a20746f6b656e20616c7265616479206d696e74656400000000600082015250565b6000613ee2601c83612600565b9150613eed82613eac565b602082019050919050565b60006020820190508181036000830152613f1181613ed5565b9050919050565b600060a082019050613f2d60008301886135d7565b613f3a60208301876135d7565b613f4760408301866135d7565b613f546060830185612933565b613f616080830184612745565b9695505050505050565b600060ff82169050919050565b613f8181613f6b565b82525050565b6000608082019050613f9c60008301876135d7565b613fa96020830186613f78565b613fb660408301856135d7565b613fc360608301846135d7565b9594505050505056fea26469706673582212203949b148ff69fb0790b8964a05b1bc446e7e1672480bc1e7b80bdcae40c66ae664736f6c634300080e0033",
  "linkReferences": {},
  "deployedLinkReferences": {}
}